:020000040800F2
:10000000F8050020C50100080B0900081B060008C0
:100010000909000827040008BD11000800000000BD
:10002000000000000000000000000000B90D000802
:100030008304000800000000C50B0008910E0008B2
:10004000DF010008DF010008DF010008DF01000810
:10005000DF010008DF010008DF010008DF01000800
:10006000DF010008DF010008DF010008DF010008F0
:10007000DF010008DF010008DF010008DF010008E0
:10008000DF010008DF010008FD020008DF010008B1
:10009000DF010008DF010008DF010008DF010008C0
:1000A000DF010008DF010008DF010008DF010008B0
:1000B000DF010008DF010008DF010008DF010008A0
:1000C000DF010008DF010008DF010008DF01000890
:1000D000DF010008DF010008DF010008DF01000880
:1000E000DF010008DF010008DF010008DF01000870
:1000F000DF010008DF010008DF010008DF01000860
:10010000DF010008DF010008DF010008DF0100084F
:10011000DF010008DF010008DF010008DF0100083F
:10012000DF010008DF010008DF010008DF0100082F
:10013000DF010008DF010008DF010008DF0100081F
:10014000DF010008DF010008DF010008DF0100080F
:10015000DF010008DF010008DF010008DF010008FF
:10016000DF010008DF010008DF010008DF010008EF
:10017000DF010008DF010008DF010008DF010008DF
:10018000DF010008DF010008DF010008DF010008CF
:10019000DF010008DF010008DF010008DF010008BF
:1001A000DF010008DF010008DF010008DFF810D0E0
:1001B00000F030F800480047E1170008AFF3008076
:1001C000F80500200648804706480047FEE7FEE79E
:1001D000FEE7FEE7FEE7FEE7FEE7FEE7FEE7FEE7F7
:1001E000D50E0008AD01000830B50B4601460020D1
:1001F0002022012409E021FA02F59D4205D303FAE9
:1002000002F5491B04FA02F52844151EA2F1010269
:10021000F1DC30BD064C074D06E0E06840F001031C
:1002200094E8070098471034AC42F6D3FFF7C2FFBA
:100230006C2100088C21000870B58C1810F8015B47
:1002400015F0070301D110F8013B2A1106D110F86F
:10025000012B03E010F8016B01F8016B5B1EF9D173
:100260002B0705D40023521E0DD401F8013BFAE7F9
:1002700010F8013BCB1A921C03E013F8015B01F864
:10028000015B521EF9D5A142D8D3002070BD090AE6
:10029000C94301607047002904D0816841F0010121
:1002A00081607047816821F0010181607047000022
:1002B00010B5074C226807490A40D0E900131943DA
:1002C000D0E90230034319431143216010BD0000FF
:1002D00004230140E030FCFFC06C80B2704730B5B1
:1002E000024600200B0A546801258D402C401168FD
:1002F000194202D0002C00D0012030BD70B50A4D4B
:1003000040F2052421462846FFF7E9FF012804D1E1
:100310002846FFF7E1FF054A108021462846BDE840
:100320007040FFF7B4BF000000200140240000200F
:1003300001238B40002A03D0416819434160704774
:10034000416899434160704730B542680F4B1A408D
:100350000C790B6842EA04221343436083680C4A19
:100360001340D1E9034222434D798C6844EA4504A5
:1003700022431A438260C26A22F47002097D491E38
:10038000C9B242EA0151C16230BD0000FFFEFFFC6C
:10039000FDF7FFC070B5072609290AD9C568A1F184
:1003A0000A0404EB4404A640B543A3401D43C560C2
:1003B00007E0056901EB4104A640B543A3401D4396
:1003C00005611F23072A09D2446B521E02EB8202E9
:1003D00093409C4391400C43446370BD0D2A09D265
:1003E000046BD21F02EB820293409C4391400C436A
:1003F000046370BDC46A0D3A02EB820293409C43D1
:1004000091400C43C46270BD816841F080418160BD
:10041000704700210160017141718160C16001611B
:10042000012101757047FEE710B5044601F07EF921
:10043000204601F04BF901F0AFF901F023F9044631
:1004400001F004F901F092F9204610BD2DE9F041C8
:1004500007460D461646002401F068F9384601F0BB
:1004600035F901F099F906E0285D01F02FF901F066
:1004700093F9641CE4B2B442F6D3BDE8F04101F054
:1004800075B9704770B586B00121084600F09CFB35
:100490000121102000F0B4FB1E4E07220A21304635
:1004A00000F0A0F807220921304600F09BF8002454
:1004B0008DF8164001208DF8170002258DF8145094
:1004C000410204918DF8155004A9304600F04CF813
:1004D0008DF814506802049004A9304600F044F8E6
:1004E0004FF4E1300090ADF80440ADF80640ADF8AF
:1004F0000840ADF80C400C20ADF80A00064C6946E7
:10050000204600F0F9FD0121204600F0E1FD06B093
:1005100070BD0000000002400010014011B5002233
:100520004FF47A7405E0204600F014F80099491E53
:10053000009100998A42F6D318BD70B50446002593
:100540004FF47A7603E03046FFF7E8FF641EA542D9
:10055000F9D370BD01B50348009901600168002915
:10056000FCD108BDE80100202DE9F041002201275F
:100570004FF0030C07FA02F50B682B40AB422CD16D
:10058000066853000CFA03F4A64306600E79D0F80F
:1005900000809E4046EA080606600E79012E01D0D2
:1005A000022E12D18668A64386604E79D0F8088064
:1005B0009E4046EA080686604668AE434660456847
:1005C0008E799640B6B235434560C568A543C5608F
:1005D000CC799C40C3681C43C460521C102AC9D308
:1005E000BDE8F08110B54B07DB0E9A40C90800EB5F
:1005F0008100016A0F249C40A1430162016A1143FA
:10060000016210BD0246002012690A4200D001209A
:1006100070474183704701837047FEE7034600201F
:100620009A8A1B8B1B041A4322F07F42914300D10C
:1006300001207047002904D0018841F001010180A8
:100640007047018821F001010180704730B587B003
:100650000121480500F0C6FA0121022000F0B4FA99
:100660001E4D042206212846FFF7BCFF0422072165
:100670002846FFF7B7FF4021059102218DF8181099
:100680008DF8191001218DF81A1000248DF81B40E7
:1006900005A92846FFF768FF8021059105A928468E
:1006A000FFF762FFADF808404BF6FF70ADF80A00A7
:1006B0007820ADF80C002815ADF80E000001ADF85B
:1006C000100007480190074C01A9204600F03EF8B1
:1006D00001212046FFF7AEFF07B030BD0004024005
:1006E000801A060000540040002904D0018841F41B
:1006F000807101807047018821F48071018070470A
:10070000002904D0018841F40071018070470188FC
:1007100021F40071018070470CB502460020009260
:100720000A0F019221F07F41019A002A03D0009A1A
:100730001432009203E0090C009A18320092009AD9
:1007400012680A4200D001200CBD00007FB50446AB
:100750000D46A08820F03F06684600F05FFA029838
:100760002749B0FBF1F189B20E43A680228822F01E
:1007700001022280234B2A689A4209D85200B0FB1A
:10078000F2F080B2042800D20420491C218423E026
:10079000EB88A3F53F46FF3E0BD002EBC20303EB11
:1007A0000212B0FBF2F080B240F48040020506D0A5
:1007B00007E002EB4202B0FBF2F080B2F6E740F055
:1007C000010040F400404FF4967251434FF47A72A6
:1007D000B1FBF2F1491C2184A083208840F0010084
:1007E000208020884FF6F5310840A9886A89114396
:1007F00001432180A8892989084320817FBD000009
:1008000040420F00A0860100002A02D041F0010101
:1008100001E001F0FE010182704701827047000093
:100820002DE9F04104460E461D4D4FF40037394680
:100830002846FFF771FF0028F9D101212846FFF76C
:1008400053FF184F28463946FFF7E8FE0028F9D035
:10085000002278212846FFF7D7FF134F2846394654
:10086000FFF7DCFE0028F9D021462846FFF7D5FF28
:100870000D4CA41C21462846FFF7D0FE0028F9D0D5
:1008800031462846FFF7C9FF21462846FFF7C6FE36
:100890000028F9D02846BDE8F0410121FFF730BF1C
:1008A0000054004001000300820007002DE9FC41D4
:1008B0000121802000F088F94FF480640094012029
:1008C0008DF8040000218DF806108DF807008DF8D2
:1008D00005100C4F69463846FFF746FE6600009645
:1008E00069463846FFF740FEA50000956946384640
:1008F000FFF73AFE03481830048006800580BDE803
:10090000FC810000001C0240FEE7704730B50F2359
:10091000C27801250178002A1FD0154A126802F416
:10092000E062C2F5E062C2F30722C2F10404D340E0
:100930004278A24084781C401443220101F1E02156
:1009400081F80024007800F01F018D4040098000EC
:1009500000F1E020C0F8005130BD01F01F008540DB
:100960004809800000F1E020C0F8805130BD00004F
:100970000CED00E00249084302490860704700009E
:100980000000FA050CED00E010B500F07DF8002441
:10099000182000F051FC641C802CF9D310BD70B5F8
:1009A0000646002505F1B000C0B200F041FC002071
:1009B00000F03EFC102000F03BFC0024304600F02C
:1009C0003BFC641CE4B2802CF8D36D1CEDB2082D06
:1009D000E8D370BD10B50120FFF7AFFDAE2000F0E9
:1009E00027FC202000F024FC102000F021FCB02087
:1009F00000F01EFCC82000F01BFC002000F018FCDA
:100A0000102000F015FC402000F012FC812000F0C6
:100A10000FFCFF2000F00CFCA12000F009FCA62038
:100A200000F006FCA82000F003FC3F2000F000FCD2
:100A3000A42000F0FDFBD32000F0FAFB002000F022
:100A4000F7FBD52000F0F4FBF02000F0F1FBD920FB
:100A500000F0EEFB222000F0EBFBDA2000F0E8FBD8
:100A6000122000F0E5FBDB2000F0E2FB202000F08C
:100A7000DFFB8D2000F0DCFB142000F0D9FBBDE88B
:100A80001040AF2000F0D4BB10B50446B031C8B25E
:100A900000F0CEFB102040EA141000F0C9FB04F077
:100AA0000F00BDE8104000F0C3BB00002DE9F0418D
:100AB00080460F460025540139464046FFF7E4FFC3
:100AC0000C4E305D00F0B8FB641C6D1CEDB2102DB7
:100AD000F7D37F1CF9B24046FFF7D6FF0025305D03
:100AE00000F0AAFB641C6D1CEDB2102DF7D3BDE81D
:100AF000F0810000280000202DE9F04704460F4651
:100B000091460026012B22D0022B24D1DFF8ACA085
:100B10004EE0203800F0FF087E2C02D900247F1C14
:100B2000FFB239462046FFF7AFFF0025244908EB06
:100B3000480001EB400818F8050000F07DFB6D1C33
:100B4000EDB2062DF7D3A41DE4B2761CF6B219F867
:100B500006000028DDD1BDE8F087203800F0FF084E
:100B6000782C02D900247F1CFFB239462046FFF7BB
:100B70008BFF002505EB08101AF8000000F05CFB65
:100B80006D1CEDB2082DF5D3781CC1B22046FFF7DD
:100B90007BFF002505EB08105044007A00F04CFB69
:100BA0006D1CEDB2082DF5D30834E4B2761CF6B214
:100BB00019F806000028D0D1CDE700007C1B000802
:100BC0005419000870470000054A002903D0116835
:100BD0000143116070471168814311607047000044
:100BE00030380240054A002903D0116801431160E2
:100BF000704711688143116070470000403802401F
:100C0000054A002903D0116801431160704711683B
:100C100081431160704700004438024070B5244B96
:100C2000196801F00C01234C00291ED0224E042922
:100C30001DD008291DD00460196801F0F0010909D0
:100C40001E4A545C0168E14041601C6804F4E054B1
:100C5000A40A145D21FA04F484601B6803F4604361
:100C60005B0BD25CD140C16070BD0460E4E70660FC
:100C7000E2E70F4A121F1168C1F38055116801F0B5
:100C80003F0135B1B6FBF1F11468C4F38814614338
:100C900005E0B4FBF1F11468C4F3881461431268F1
:100CA000C2F30142521C5200B1FBF2F10160C3E7F2
:100CB000083802400024F40040787D011400002030
:100CC00008B5010A8DF800108DF80100022269466E
:100CD0005220FFF7BBFB5320FFF7A6FB08BD000027
:100CE0001CB501210420FFF76FFF012000900320B5
:100CF0008DF8040000208DF8070069460148FFF7D1
:100D000033FC1CBD0008024010B58AB00121080266
:100D1000FFF776FF002400944FF480300190029496
:100D20004FF4706003906846FFF7C2FA04A8FFF71B
:100D300070FB04948DF8144001208DF81500069482
:100D400008948DF824000D4C04A92046FFF7FCFA06
:100D5000002301220A212046FFF71CFB012240F25A
:100D600005212046FFF7E4FA01212046FFF793FA18
:100D70002046FFF749FB0AB010BD000000200140EB
:100D800008B54FF4C060FFF7F5FD12208DF80000A4
:100D900001208DF801008DF802008DF803006846EF
:100DA000FFF7B4FD08BD10B5FFF79AFFFFF7ACFFE2
:100DB000BDE81040FFF7E4BF704700001CB50021FC
:100DC000019100912E4A106840F4803010604FF479
:100DD000A043106800F4003000900198401C01907E
:100DE000009810B901989842F3D11068800302D599
:100DF0000120009000E00091009801283FD1204898
:100E00004030016841F0805101601E49086840F49B
:100E1000404008601A48083003680360036843F4E0
:100E200000430360036843F4A0530360041F164BA0
:100E30002360136843F08073136013689B01FCD533
:100E40000A6842F480320A604A68D203FCD50A6814
:100E500042F400320A604A689203FCD50B4A40F221
:100E600005711160016821F003010160016841F022
:100E7000020101600168C1F381010229FAD11CBDA0
:100E80000038024000700040195A4007003C024000
:100E900000F014B90C480D490068B0FBF1F0401E99
:100EA000B0F1807F01D301200AE04FF0E0214861DA
:100EB000074AF02010700020886107200861002098
:100EC000002800D0FEE770470000002040420F00DD
:100ED00023ED00E010B50F48016841F00101016009
:100EE0000C4A00210832116002680B4B1A40026064
:100EF000031D0A4A1A60026822F480220260054833
:100F00000C300160FFF75AFF05494FF000600860A0
:100F100010BD000000380240FFFFF6FE1030002434
:100F200008ED00E010B51620FFF7CAFE012801D039
:100F3000002010BD012140F2072000F06BF90121D3
:100F40004FF4027000F066F90021962000F062F97B
:100F5000FD21972000F05EF90121E32000F05AF90D
:100F60000321E42000F056F90221E52000F052F9B7
:100F70000121E62000F04EF90321E72000F04AF9B4
:100F80000221F52000F046F90521D92000F042F9B0
:100F9000CE21DB2000F03EF90321DC2000F03AF9FD
:100FA000F821DD2000F036F900219F2000F032F911
:100FB0003C21A32000F02EF90021B72000F02AF9EF
:100FC0003C21BB2000F026F90921B22000F022F9D3
:100FD0000921CA2000F01EF901214FF4CC7000F065
:100FE00019F917214FF4D87000F014F9002140F2DC
:100FF000AD1000F00FF90521FF2000F00BF90521DD
:101000004FF4807000F006F9052140F2991000F0CD
:1010100001F91B214FF4D37000F0FCF83E214FF48E
:10102000D67000F0F7F81F2140F2A71000F0F2F898
:101030000021302000F0EEF81021112000F0EAF835
:1010400030214FF4857000F0E5F846213F2000F094
:10105000E1F8FF21312000F0DDF86321412000F0AC
:10106000D9F801212E2000F0D5F809211B2000F02D
:10107000D1F831213E2000F0CDF82421142000F0D9
:10108000C9F80021162000F0C5F807A000F0D8F834
:1010900009494FF48060088041000748801E0180A4
:1010A00081140180012010BD746F66B3F5CABCBB0A
:1010B000AFB3C9B9A60D0A001A1C02400348016863
:1010C000002902D00168491E01607047E801002034
:1010D000002904D0818941F40051818170478189C0
:1010E00021F40051818170470246002012880A4293
:1010F00000D00120704700007FB504460D46208ACD
:1011000020F44051E88808432082A08941F20C6114
:101110008843A9882A8911436A8902431143A1811E
:10112000A08A20F44071A8890843A0826846FFF78E
:1011300075FD1E48844202D01D48844201D10398A7
:1011400000E00298A189090408D500EBC00101EB79
:10115000001029684900B0FBF1F007E000EBC00186
:1011600001EB001029688900B0FBF1F06422B0FBAC
:10117000F2F109010B096FF018056B4300EB8300D6
:10118000A3891D044FF0320307D503EBC000B0FB69
:10119000F2F000F00700084306E003EB0010B0FB9C
:1011A000F2F000F00F00084320817FBD00100140E5
:1011B00000140140C1F3080181807047FEE7072158
:1011C000152000F027B8000070B54F20FFF778FD1C
:1011D00000F00704094D0DE02888401C80B22880EB
:1011E000022809D84F20FFF76BFD00F0070401200B
:1011F000FFF794F9042CEFD1002070BDEC01002022
:1012000010B50121182000F005F8002010BD622063
:10121000FFF756BD08B5020A8DF800208DF80100D1
:101220008DF80210032269465220FFF70FF908BD1E
:1012300001460020FFF7F4BA01464020FFF7F0BA5C
:101240000FB4054B10B503A9044A029800F02CF81E
:1012500010BC5DF814FB0000F5150008F00100203B
:101260000FB4084B10B504A902AA039800F01CF8AB
:10127000044602A9002000F0B8F9204610BC5DF831
:1012800014FB0000EB15000802E008C8121F08C19B
:10129000002AFAD170477047002001E001C1121FF7
:1012A000002AFBD1704700002DE9FF4F8BB0884624
:1012B0000546002606E025280BD0DDE90D129047F3
:1012C0006D1C761C28780028F5D10FB03046BDE89B
:1012D000F08F0024A146A2460122AE4900E004435B
:1012E00015F8013F203B02FA03F00842F7D12878B5
:1012F0002A2810D06FF02F022878A0F13001092998
:1013000015D809EB890102EB410144F0020400EB1E
:1013100001096D1CF0E758F8041B5FEA010903D5C9
:1013200044F40054C9F1000944F002046D1C28780B
:101330002E2817D115F8010F44F004042A280ED0E6
:101340006FF02F022878A0F1300109290AD80AEBA2
:101350008A0102EB410100EB010A6D1CF2E758F82B
:1013600004AB6D1C28786C280FD006DC4C2817D0F5
:1013700068280DD06A2814D104E0742810D07A2887
:101380000FD10DE044F400140AE044F4801401E0AD
:1013900044F440146978814202D104F580146D1C34
:1013A0006D1C2878692865D006DC00288DD063285C
:1013B00027D0642806D15DE06E2808D073282AD093
:1013C000752877D0DDE90D129047761CE0E0C4F374
:1013D0000250022809D003280DD0D8F800100428A4
:1013E0000DD00E6008F10408D2E0D8F80010F21712
:1013F000C1E90062F6E7D8F800100E80F2E70E703F
:10140000F0E718F8041B8DF8001000208DF801009B
:10141000EB46012003E058F804BB4FF0FF306107B2
:101420004FF0000701D40AE07F1C57450DDA8742D0
:10143000FADB1BF807100029F6D106E07F1C874273
:10144000FCDB1BF807100029F8D1DDE90D23A9EB1F
:1014500007008146214600F0B1F83044C61904E087
:10146000DDE90D121BF8010B90477F1EF8D22146D3
:10147000484688E058F8040BC4F302514FF00A0BB9
:10148000032900D100B2042900D140B2002802DAB9
:1014900040422D2102E0210505D52B218DF8241095
:1014A000012104E006E0E10710D02021F6E708AFB3
:1014B000089113E058F8040BC4F302514FF00A0BE3
:1014C000032900D180B2042900D1C0B20021EEE787
:1014D0005946FEF789FE303107F8011D0028F7D183
:1014E000ADEB070000F1200B600702D524F4803437
:1014F00001E04FF0010ADA4502DDAAEB0B0000E043
:101500000020824600EB0B0108980144A9EB010082
:101510000A90E00306D4DDE90D2321460A9800F085
:101520004DF806444FF0000908E009A911F8090038
:10153000DDE90D12904709F10109761C08998945EA
:10154000F3DBE0030CD5DDE90D2321460A9800F01A
:1015500035F8064404E0DDE90D1230209047761C92
:10156000BAF10001AAF1010AF5DC05E0DDE90D128E
:1015700017F8010B9047761CBBF10001ABF1010B92
:10158000F4DC0A982146DDE90D2300F005F8064455
:101590006D1C97E6092801002DE9F041044600255D
:1015A0001E461746880404D405E039462020B0477B
:1015B0006D1C641EF9D52846BDE8F0812DE9F04187
:1015C000044600251E469046C80301D5302700E09A
:1015D0002027880404D505E041463846B0476D1CF5
:1015E000641EF9D52846BDE8F0810A68531C0B60DB
:1015F0001070704770B50446064DE1B22846FFF7FB
:10160000D9FD80212846FFF76FFD0028F9D020463C
:1016100070BD0000001001401CB501210420FFF73F
:10162000D3FAC020009000208DF8050001218DF82C
:1016300004108DF806108DF8070069460248FEF781
:1016400093FF00F093F81CBD0008024010B50C4C4D
:1016500040212046FEF7DFFF0220FEF77BFF8021BE
:101660002046FEF7D8FF0220FEF774FF80212046B7
:10167000FEF7CFFFBDE810400220FEF76BBF000071
:101680000008024070B5002400250F4E6006040ECD
:1016900080213046FEF7BFFF0220FEF75BFF4021AE
:1016A0003046FEF7AFFF08B1641CE4B2802130463B
:1016B000FEF7AFFF0220FEF74DFF6D1CEDB2082DC7
:1016C000E4D3204670BD00000008024070B5054616
:1016D0000024154E280604D540213046FEF79BFF16
:1016E00003E040213046FEF794FF0220FEF732FF70
:1016F00080213046FEF78FFF0220FEF72BFF80216E
:101700003046FEF786FF072C03D140213046FEF716
:1017100082FF6806050E0220FEF71CFF641CE4B27F
:10172000082CD7D370BD00000008024010B50E4C45
:1017300040212046FEF76FFF80212046FEF76BFF19
:101740000420FEF707FF40212046FEF762FF042039
:10175000FEF700FF80212046FEF75BFFBDE810404A
:101760000420FEF7F7BE00000008024010B5094C47
:1017700040212046FEF74DFF80212046FEF74BFF1B
:101780000420FEF7E7FE2046BDE810404021FEF7AA
:1017900042BF00000008024070B5104D40212846AD
:1017A000FEF739FF0120FEF7D5FE80212846FEF71F
:1017B00032FF0120FEF7CEFE40212846FEF722FF31
:1017C00008B1012400E0002480212846FEF721FF13
:1017D0000120FEF7BFFE204670BD00000008024059
:1017E0000EB5FFF757FBFFF717FFFEF72FFFFFF7C9
:1017F0005DF8FEF747FE4F4E4FF48068A6F8008074
:101800004FF40069A6F80090B71C4FF4805AA7F86F
:1018100000A00120FEF791FEFFF784FBFFF7C3FA5B
:10182000FFF7D8F8FF20FFF7BAF80120FEF785FE92
:101830000020FFF7B4F80120FEF77FFE4FF0300BD9
:10184000A6F80080A7F80090A6F800A000240825BC
:1018500005EB0410C0B222460021FFF727F9641CF3
:10186000E4B2072CF4D302210020FFF78DF8012306
:1018700031A203210020FFF73FF9002507242807A4
:10188000000E22460421FFF711F96D1CEDB2641C15
:10189000E4B20B2CF3D300250B242807000E2246BC
:1018A0000621FFF703F96D1CEDB2641CE4B20E2CA7
:1018B000F3D3234C228823A101A8FFF7D1FC0020F9
:1018C00001A90A5C202A01D101F800B0401CC0B275
:1018D0000428F6D3022301AA06212720FFF70CF9DA
:1018E000A7F80080A7F80090A6F800A0FFF788FCF2
:1018F000FFF76AFCFFF78BFC6080FFF760FC6188F4
:1019000011A0FFF79DFC628811A16846FFF7A8FCB3
:10191000002069460A5C202A01D101F800B0401C71
:10192000C0B20328F6D302236A4604213720FFF70A
:10193000E3F885E7181C024072616E67653A0000A3
:10194000240000202534640025640D0A00000000F6
:10195000253364000000000000000000002F00009C
:1019600000000700070000147F147F1400242A7F62
:101970002A120062640813230036495522500000E1
:101980000503000000001C224100000041221C0051
:101990000014083E08140008083E0808000000A0D3
:1019A00060000008080808080000606000000020CF
:1019B00010080402003E5149453E0000427F4000AD
:1019C000004261514946002141454B310018141233
:1019D0007F10002745454539003C4A494930000100
:1019E0007109050300364949493600064949291E4F
:1019F00000003636000000005636000000081422B1
:101A000041000014141414140000412214080002B0
:101A10000151090600324959513E007C1211127CD5
:101A2000007F49494936003E41414122007F414102
:101A3000221C007F49494941007F09090901003EF4
:101A40004149497A007F0808087F0000417F410032
:101A5000002040413F01007F08142241007F4040A8
:101A60004040007F020C027F007F0408107F003E90
:101A70004141413E007F09090906003E4151215E76
:101A8000007F091929460046494949310001017F73
:101A90000101003F4040403F001F2040201F003F09
:101AA0004038403F006314081463000708700807BB
:101AB00000615149454300007F41410000552A55CE
:101AC0002A55000041417F00000402010204004049
:101AD000404040400000010204000020545454786B
:101AE000007F48444438003844444420003844448B
:101AF000487F00385454541800087E090102001829
:101B0000A4A4A47C007F080404780000447D400065
:101B1000004080847D00007F102844000000417F49
:101B20004000007C04180478007C08040478003825
:101B30004444443800FC242424180018242418FCAD
:101B4000007C0804040800485454542000043F4416
:101B50004020003C4040207C001C2040201C003CD9
:101B60004030403C004428102844001CA0A0A07C29
:101B7000004464544C441414141414140000000061
:101B8000000000000000000000000000000000F85D
:101B900000000000000000333000000000100C06C0
:101BA000100C0600000000000000000040C078405B
:101BB000C0784000043F04043F040400007088FC27
:101BC00008300000001820FF211E0000F008F0007F
:101BD000E018000000211C031E211E0000F00888F0
:101BE000700000001E2123241927211010160E005A
:101BF000000000000000000000000000000000E005
:101C00001804020000000007182040000002041819
:101C1000E00000000040201807000000404080F075
:101C2000804040000202010F01020200000000F0AB
:101C3000000000000101011F01010100000000007F
:101C40000000000080B070000000000000000000F4
:101C5000000000000001010101010101000000007D
:101C60000000000000303000000000000000000014
:101C700080601804006018060100000000E01008F1
:101C80000810E000000F102020100F00001010F8C6
:101C9000000000000020203F202000000070080805
:101CA0000888700000302824222130000030088885
:101CB000884830000018202020110E000000C020AD
:101CC00010F8000000070424243F240000F80888CE
:101CD000880808000019212020110E0000E010885B
:101CE00088180000000F112020110E00003808088D
:101CF000C83808000000003F00000000007088089D
:101D000008887000001C222121221C0000E010081D
:101D10000810E0000000312222110F00000000C076
:101D2000C000000000000030300000000000008013
:101D30000000000000008060000000000000804003
:101D4000201008000001020408102000404040401C
:101D5000404040000404040404040400000810206F
:101D600040800000002010080402010000704808B4
:101D70000808F0000000003036010000C030C8281C
:101D8000E810E0000718272423140B000000C038D7
:101D9000E0000000203C23020227382008F8888851
:101DA00088700000203F202020110E00C03008085D
:101DB00008083800071820202010080008F8080834
:101DC0000810E000203F202020100F0008F888882D
:101DD000E8081000203F20202320180008F88888F9
:101DE000E8081000203F200003000000C030080871
:101DF0000838000007182020221E020008F80800FA
:101E00000008F808203F210101213F20000808F8C0
:101E1000080800000020203F2020000000000808E3
:101E2000F8080800C08080807F00000008F888C0A3
:101E300028180800203F20012638200008F8080054
:101E400000000000203F20202020300008F8F8008B
:101E5000F8F80800203F003F003F200008F830C09D
:101E60000008F808203F200007183F00E01008088D
:101E70000810E0000F10202020100F0008F80808BC
:101E80000808F000203F210101010000E0100808CF
:101E90000810E0000F18242438504F0008F88888F4
:101EA00088887000203F2000030C302000708808D4
:101EB000080838000038202121221C00180808F8E2
:101EC000080818000000203F2000000008F8080063
:101ED0000008F808001F202020201F000878880034
:101EE00000C83808000007380E010000F80800F8A4
:101EF0000008F800033C0700073C0300081868804E
:101F00008068180820302C03032C30200838C800C3
:101F1000C83808000000203F200000001008080812
:101F2000C83808002038262120201800000000FEB4
:101F3000020202000000007F40404000000C30C060
:101F400000000000000000010638C000000202028C
:101F5000FE000000004040407F000000000004023E
:101F60000202040000000000000000000000000069
:101F70000000000080808080808080800002020459
:101F80000000000000000000000000000000808051
:101F9000808000000019242222223F2008F80080BF
:101FA00080000000003F112020110E000000008082
:101FB00080800000000E1120202011000000008011
:101FC0008088F800000E112020103F200000808043
:101FD00080800000001F222222221300008080F057
:101FE000888888180020203F202000000000808082
:101FF00080808000006B94949493600008F80080C7
:1020000080800000203F210000203F200080989821
:10201000000000000020203F202000000000008081
:102020009898000000C08080807F000008F80000C1
:1020300080808000203F24022D302000000808F816
:10204000000000000020203F2020000080808080D1
:1020500080808000203F20003F20003F8080008063
:1020600080800000203F210000203F200000808071
:1020700080800000001F202020201F008080008022
:102080008000000080FFA12020110E0000000080D1
:1020900080808000000E112020A0FF8080808000C2
:1020A0008080800020203F212000010000008080EF
:1020B000808080000033242424241900008080E0E4
:1020C000808000000000001F2020000080800000B1
:1020D00000808000001F202020103F208080800092
:1020E0000080808000010E300806010080800080A2
:1020F000008080800F300C030C300F0000808000C7
:10210000808080000020312E0E31200080808000F1
:102110000080808080818E701806010000808080A1
:10212000808080000021302C22213000000000003F
:10213000807C020200000000003F404000000000E0
:10214000FF00000000000000FF0000000002027C11
:10215000800000000040403F000000000006010138
:102160000202040400000000000000008C210008AE
:1021700000000020F401000038020008942200084A
:10218000F40100200404000098120008118495BA9C
:102190000A680901020304060708090CA910112B9B
:1021A0001008012BF8F80672186720203F3F202006
:1021B0004CC0E0F02326081830E0C03E030F1F108B
:1021C00020013510180F07593C4F0808C80808109F
:1021D0003C1C2121010162034CE0F030204430F02E
:1021E000E03D0F1F183040493F214CF8088801524C
:1021F000084C181929600C22111F0E40091C80156B
:102200001060028C16FE02F202FE12F822FF100B82
:1022100004047E018047300F10272C47807F2F4C0D
:1022200020BEAA011ABE0C211C8080AF0C1AFF042C
:1022300034AF8080200E8060F80704E4A4A4BFA41B
:10224000A4E40422012EFF40407F4A0104137F4092
:1022500040D33636180D040474545455565454540F
:102260007404402F848341211D0501367D818185C1
:10227000E32809FC242424FC252624081204380E13
:1022800040308F80844C55252525554C8081091D73
:0422900060B1000039
:04000005080001AD41
:00000001FF
